{
  "address": "0x6FACFDC7EaFb2eC0044E140551630d2BA12c1Def",
  "_format": "hh-sol-artifact-1",
  "contractName": "Pool",
  "sourceName": "contracts/Pool.sol",
  "abi": [
    {
      "inputs": [
        {
          "internalType": "address",
          "name": "_cWOLFContractAddress",
          "type": "address"
        },
        {
          "internalType": "address",
          "name": "_variablesContractAddress",
          "type": "address"
        },
        {
          "internalType": "address",
          "name": "_rewardsPoolAddress",
          "type": "address"
        },
        {
          "internalType": "uint256",
          "name": "_cWolfPerBlock",
          "type": "uint256"
        },
        {
          "internalType": "uint256",
          "name": "_startBlock",
          "type": "uint256"
        },
        {
          "internalType": "address",
          "name": "_feeAddress",
          "type": "address"
        }
      ],
      "stateMutability": "nonpayable",
      "type": "constructor"
    },
    {
      "anonymous": false,
      "inputs": [
        {
          "indexed": true,
          "internalType": "address",
          "name": "user",
          "type": "address"
        },
        {
          "indexed": true,
          "internalType": "uint256",
          "name": "pid",
          "type": "uint256"
        },
        {
          "indexed": false,
          "internalType": "uint256",
          "name": "amount",
          "type": "uint256"
        }
      ],
      "name": "Claim",
      "type": "event"
    },
    {
      "anonymous": false,
      "inputs": [
        {
          "indexed": true,
          "internalType": "address",
          "name": "user",
          "type": "address"
        },
        {
          "indexed": true,
          "internalType": "uint256",
          "name": "pid",
          "type": "uint256"
        },
        {
          "indexed": false,
          "internalType": "uint256",
          "name": "amount",
          "type": "uint256"
        }
      ],
      "name": "Deposit",
      "type": "event"
    },
    {
      "anonymous": false,
      "inputs": [
        {
          "indexed": true,
          "internalType": "address",
          "name": "user",
          "type": "address"
        },
        {
          "indexed": true,
          "internalType": "uint256",
          "name": "pid",
          "type": "uint256"
        },
        {
          "indexed": false,
          "internalType": "uint256",
          "name": "amount",
          "type": "uint256"
        }
      ],
      "name": "EmergencyWithdraw",
      "type": "event"
    },
    {
      "anonymous": false,
      "inputs": [
        {
          "indexed": true,
          "internalType": "address",
          "name": "previousOwner",
          "type": "address"
        },
        {
          "indexed": true,
          "internalType": "address",
          "name": "newOwner",
          "type": "address"
        }
      ],
      "name": "OwnershipTransferred",
      "type": "event"
    },
    {
      "anonymous": false,
      "inputs": [
        {
          "indexed": true,
          "internalType": "address",
          "name": "user",
          "type": "address"
        },
        {
          "indexed": true,
          "internalType": "uint256",
          "name": "pid",
          "type": "uint256"
        },
        {
          "indexed": false,
          "internalType": "uint256",
          "name": "amount",
          "type": "uint256"
        }
      ],
      "name": "Withdraw",
      "type": "event"
    },
    {
      "inputs": [
        {
          "internalType": "uint256",
          "name": "_allocPoint",
          "type": "uint256"
        },
        {
          "internalType": "contract IERC20",
          "name": "_token",
          "type": "address"
        },
        {
          "internalType": "uint256",
          "name": "_lockupDuration",
          "type": "uint256"
        },
        {
          "internalType": "uint16",
          "name": "_depositFee",
          "type": "uint16"
        }
      ],
      "name": "add",
      "outputs": [],
      "stateMutability": "nonpayable",
      "type": "function"
    },
    {
      "inputs": [
        {
          "internalType": "address",
          "name": "",
          "type": "address"
        }
      ],
      "name": "addedPool",
      "outputs": [
        {
          "internalType": "bool",
          "name": "",
          "type": "bool"
        }
      ],
      "stateMutability": "view",
      "type": "function"
    },
    {
      "inputs": [],
      "name": "cWOLFContractAddress",
      "outputs": [
        {
          "internalType": "address",
          "name": "",
          "type": "address"
        }
      ],
      "stateMutability": "view",
      "type": "function"
    },
    {
      "inputs": [],
      "name": "cWolfPerBlock",
      "outputs": [
        {
          "internalType": "uint256",
          "name": "",
          "type": "uint256"
        }
      ],
      "stateMutability": "view",
      "type": "function"
    },
    {
      "inputs": [
        {
          "internalType": "uint256",
          "name": "_pid",
          "type": "uint256"
        },
        {
          "internalType": "uint8",
          "name": "_newDepositFee",
          "type": "uint8"
        }
      ],
      "name": "changePoolDepositFee",
      "outputs": [],
      "stateMutability": "nonpayable",
      "type": "function"
    },
    {
      "inputs": [
        {
          "internalType": "uint256",
          "name": "_pid",
          "type": "uint256"
        },
        {
          "internalType": "uint256",
          "name": "_newLockupDuration",
          "type": "uint256"
        }
      ],
      "name": "changePoolLockupDuration",
      "outputs": [],
      "stateMutability": "nonpayable",
      "type": "function"
    },
    {
      "inputs": [
        {
          "internalType": "contract IERC20",
          "name": "_token",
          "type": "address"
        }
      ],
      "name": "checkPoolDuplicate",
      "outputs": [],
      "stateMutability": "view",
      "type": "function"
    },
    {
      "inputs": [
        {
          "internalType": "uint256",
          "name": "_pid",
          "type": "uint256"
        }
      ],
      "name": "claim",
      "outputs": [],
      "stateMutability": "nonpayable",
      "type": "function"
    },
    {
      "inputs": [
        {
          "internalType": "uint256",
          "name": "_pid",
          "type": "uint256"
        },
        {
          "internalType": "uint256",
          "name": "_amount",
          "type": "uint256"
        }
      ],
      "name": "deposit",
      "outputs": [],
      "stateMutability": "nonpayable",
      "type": "function"
    },
    {
      "inputs": [],
      "name": "depositLimitInDollar",
      "outputs": [
        {
          "internalType": "uint256",
          "name": "",
          "type": "uint256"
        }
      ],
      "stateMutability": "view",
      "type": "function"
    },
    {
      "inputs": [
        {
          "internalType": "uint256",
          "name": "_pid",
          "type": "uint256"
        }
      ],
      "name": "emergencyWithdraw",
      "outputs": [],
      "stateMutability": "nonpayable",
      "type": "function"
    },
    {
      "inputs": [],
      "name": "feeAddress",
      "outputs": [
        {
          "internalType": "address",
          "name": "",
          "type": "address"
        }
      ],
      "stateMutability": "view",
      "type": "function"
    },
    {
      "inputs": [
        {
          "internalType": "uint256",
          "name": "_from",
          "type": "uint256"
        },
        {
          "internalType": "uint256",
          "name": "_to",
          "type": "uint256"
        }
      ],
      "name": "getMultiplier",
      "outputs": [
        {
          "internalType": "uint256",
          "name": "",
          "type": "uint256"
        }
      ],
      "stateMutability": "pure",
      "type": "function"
    },
    {
      "inputs": [],
      "name": "massUpdatePools",
      "outputs": [],
      "stateMutability": "nonpayable",
      "type": "function"
    },
    {
      "inputs": [],
      "name": "owner",
      "outputs": [
        {
          "internalType": "address",
          "name": "",
          "type": "address"
        }
      ],
      "stateMutability": "view",
      "type": "function"
    },
    {
      "inputs": [
        {
          "internalType": "uint256",
          "name": "_pid",
          "type": "uint256"
        },
        {
          "internalType": "address",
          "name": "_user",
          "type": "address"
        }
      ],
      "name": "pendingCWolf",
      "outputs": [
        {
          "internalType": "uint256",
          "name": "",
          "type": "uint256"
        }
      ],
      "stateMutability": "view",
      "type": "function"
    },
    {
      "inputs": [
        {
          "internalType": "uint256",
          "name": "",
          "type": "uint256"
        }
      ],
      "name": "poolInfo",
      "outputs": [
        {
          "internalType": "contract IERC20",
          "name": "token",
          "type": "address"
        },
        {
          "internalType": "uint256",
          "name": "allocPoint",
          "type": "uint256"
        },
        {
          "internalType": "uint256",
          "name": "lastRewardBlock",
          "type": "uint256"
        },
        {
          "internalType": "uint256",
          "name": "accCWolfPerShare",
          "type": "uint256"
        },
        {
          "internalType": "uint256",
          "name": "rewardsAmount",
          "type": "uint256"
        },
        {
          "internalType": "uint256",
          "name": "lockupDuration",
          "type": "uint256"
        },
        {
          "internalType": "uint16",
          "name": "depositFee",
          "type": "uint16"
        },
        {
          "internalType": "uint256",
          "name": "totalStaked",
          "type": "uint256"
        }
      ],
      "stateMutability": "view",
      "type": "function"
    },
    {
      "inputs": [],
      "name": "poolLength",
      "outputs": [
        {
          "internalType": "uint256",
          "name": "",
          "type": "uint256"
        }
      ],
      "stateMutability": "view",
      "type": "function"
    },
    {
      "inputs": [],
      "name": "renounceOwnership",
      "outputs": [],
      "stateMutability": "nonpayable",
      "type": "function"
    },
    {
      "inputs": [],
      "name": "rewardsPoolAddress",
      "outputs": [
        {
          "internalType": "address",
          "name": "",
          "type": "address"
        }
      ],
      "stateMutability": "view",
      "type": "function"
    },
    {
      "inputs": [
        {
          "internalType": "uint256",
          "name": "_pid",
          "type": "uint256"
        },
        {
          "internalType": "uint256",
          "name": "_allocPoint",
          "type": "uint256"
        }
      ],
      "name": "setAllocPoint",
      "outputs": [],
      "stateMutability": "nonpayable",
      "type": "function"
    },
    {
      "inputs": [
        {
          "internalType": "uint256",
          "name": "_cWolfPerBlock",
          "type": "uint256"
        }
      ],
      "name": "setCWolfPerBlock",
      "outputs": [],
      "stateMutability": "nonpayable",
      "type": "function"
    },
    {
      "inputs": [
        {
          "internalType": "uint256",
          "name": "_pid",
          "type": "uint256"
        },
        {
          "internalType": "uint16",
          "name": "_depositFee",
          "type": "uint16"
        }
      ],
      "name": "setDepositFee",
      "outputs": [],
      "stateMutability": "nonpayable",
      "type": "function"
    },
    {
      "inputs": [
        {
          "internalType": "uint256",
          "name": "_newDepositLimitInDollar",
          "type": "uint256"
        }
      ],
      "name": "setDepositLimitInDollar",
      "outputs": [],
      "stateMutability": "nonpayable",
      "type": "function"
    },
    {
      "inputs": [
        {
          "internalType": "address",
          "name": "_feeAddress",
          "type": "address"
        }
      ],
      "name": "setFeeAddress",
      "outputs": [],
      "stateMutability": "nonpayable",
      "type": "function"
    },
    {
      "inputs": [
        {
          "internalType": "uint256",
          "name": "_pid",
          "type": "uint256"
        },
        {
          "internalType": "uint256",
          "name": "_lockupDuration",
          "type": "uint256"
        }
      ],
      "name": "setLockupDuration",
      "outputs": [],
      "stateMutability": "nonpayable",
      "type": "function"
    },
    {
      "inputs": [
        {
          "internalType": "address",
          "name": "_newVariablesContractAddress",
          "type": "address"
        }
      ],
      "name": "setVariablesAddress",
      "outputs": [],
      "stateMutability": "nonpayable",
      "type": "function"
    },
    {
      "inputs": [],
      "name": "startBlock",
      "outputs": [
        {
          "internalType": "uint256",
          "name": "",
          "type": "uint256"
        }
      ],
      "stateMutability": "view",
      "type": "function"
    },
    {
      "inputs": [],
      "name": "totalAllocPoint",
      "outputs": [
        {
          "internalType": "uint256",
          "name": "",
          "type": "uint256"
        }
      ],
      "stateMutability": "view",
      "type": "function"
    },
    {
      "inputs": [],
      "name": "totalLockedUpRewards",
      "outputs": [
        {
          "internalType": "uint256",
          "name": "",
          "type": "uint256"
        }
      ],
      "stateMutability": "view",
      "type": "function"
    },
    {
      "inputs": [
        {
          "internalType": "address",
          "name": "newOwner",
          "type": "address"
        }
      ],
      "name": "transferOwnership",
      "outputs": [],
      "stateMutability": "nonpayable",
      "type": "function"
    },
    {
      "inputs": [
        {
          "internalType": "uint256",
          "name": "_pid",
          "type": "uint256"
        }
      ],
      "name": "updatePool",
      "outputs": [],
      "stateMutability": "nonpayable",
      "type": "function"
    },
    {
      "inputs": [
        {
          "internalType": "uint256",
          "name": "",
          "type": "uint256"
        },
        {
          "internalType": "address",
          "name": "",
          "type": "address"
        }
      ],
      "name": "userInfo",
      "outputs": [
        {
          "internalType": "uint256",
          "name": "amount",
          "type": "uint256"
        },
        {
          "internalType": "uint256",
          "name": "rewardDebt",
          "type": "uint256"
        },
        {
          "internalType": "uint256",
          "name": "pendingRewards",
          "type": "uint256"
        },
        {
          "internalType": "uint256",
          "name": "lastWithdraw",
          "type": "uint256"
        }
      ],
      "stateMutability": "view",
      "type": "function"
    },
    {
      "inputs": [],
      "name": "variablesContractAddress",
      "outputs": [
        {
          "internalType": "address",
          "name": "",
          "type": "address"
        }
      ],
      "stateMutability": "view",
      "type": "function"
    },
    {
      "inputs": [
        {
          "internalType": "uint256",
          "name": "_pid",
          "type": "uint256"
        },
        {
          "internalType": "uint256",
          "name": "_amount",
          "type": "uint256"
        }
      ],
      "name": "withdraw",
      "outputs": [],
      "stateMutability": "nonpayable",
      "type": "function"
    }
  ],
  "bytecode": "0x60806040526000600a553480156200001657600080fd5b50604051620023393803806200233983398101604081905262000039916200016d565b620000443362000100565b600180556001600160a01b038416620000a35760405162461bcd60e51b815260206004820152601560248201527f546f6b656e2069732061207a65726f2076616c75650000000000000000000000604482015260640160405180910390fd5b600280546001600160a01b039788166001600160a01b03199182161790915560048054968816968216969096179095556003805494871694861694909417909355600691909155600b5560058054919093169116179055620001dc565b600080546001600160a01b038381166001600160a01b0319831681178455604051919092169283917f8be0079c531659141344cd1fd0a4f28419497f9722a3daafe3b4186f6b6457e09190a35050565b80516001600160a01b03811681146200016857600080fd5b919050565b60008060008060008060c087890312156200018757600080fd5b620001928762000150565b9550620001a26020880162000150565b9450620001b26040880162000150565b93506060870151925060808701519150620001d060a0880162000150565b90509295509295509295565b61214d80620001ec6000396000f3fe608060405234801561001057600080fd5b50600436106102115760003560e01c8063715018a611610125578063cce85055116100ad578063e80d92171161007c578063e80d9217146104da578063f2fde38b146104ed578063f34bcc8214610500578063f44dcfff14610513578063f674112a1461052657600080fd5b8063cce850551461048e578063d208c382146104a1578063e1d3bac2146104b4578063e2bbb158146104c757600080fd5b80638da5cb5b116100f45780638da5cb5b146103ce5780638dbb1e3a146103df57806393f1a40b146103f25780639c49c4c114610452578063a9634c241461048557600080fd5b8063715018a61461038d578063721b2e89146103955780637757e21b146103a85780638705fcd4146103bb57600080fd5b806341275358116101a8578063474fa63011610177578063474fa6301461034d57806348cd4cb11461035657806351eb05a61461035f5780635312ea8e14610372578063630b5ba11461038557600080fd5b806341275358146102e95780634200f7af14610314578063441a3e701461032757806346c9f9851461033a57600080fd5b80632045ea59116101e45780632045ea59146102a75780632b585d65146102b0578063322d0d4a146102c3578063379607f5146102d657600080fd5b8063081e3eda146102165780631526fe271461022d57806317caf6f1146102895780631b1457ea14610292575b600080fd5b6007545b6040519081526020015b60405180910390f35b61024061023b366004611deb565b610539565b604080516001600160a01b0390991689526020890197909752958701949094526060860192909252608085015260a084015261ffff1660c083015260e082015261010001610224565b61021a600a5481565b6102a56102a0366004611e04565b6105a0565b005b61021a60065481565b6102a56102be366004611e26565b610603565b6102a56102d1366004611e71565b61066c565b6102a56102e4366004611deb565b61070a565b6005546102fc906001600160a01b031681565b6040516001600160a01b039091168152602001610224565b6102a5610322366004611ea5565b610868565b6102a5610335366004611e04565b6108dd565b61021a610348366004611ed1565b610b41565b61021a600c5481565b61021a600b5481565b6102a561036d366004611deb565b610d5d565b6102a5610380366004611deb565b610f2b565b6102a561107f565b6102a56110aa565b6002546102fc906001600160a01b031681565b6102a56103b6366004611deb565b6110e0565b6102a56103c9366004611e71565b61110f565b6000546001600160a01b03166102fc565b61021a6103ed366004611e04565b6111a7565b610432610400366004611ed1565b600860209081526000928352604080842090915290825290208054600182015460028301546003909301549192909184565b604080519485526020850193909352918301526060820152608001610224565b610475610460366004611e71565b60096020526000908152604090205460ff1681565b6040519015158152602001610224565b61021a600d5481565b6003546102fc906001600160a01b031681565b6102a56104af366004611e04565b6111ba565b6102a56104c2366004611deb565b611219565b6102a56104d5366004611e04565b6112b3565b6102a56104e8366004611e04565b611599565b6102a56104fb366004611e71565b61163b565b6102a561050e366004611e71565b6116d6565b6004546102fc906001600160a01b031681565b6102a5610534366004611ef6565b611722565b6007818154811061054957600080fd5b6000918252602090912060089091020180546001820154600283015460038401546004850154600586015460068701546007909701546001600160a01b0390961697509395929491939092909161ffff9091169088565b6000546001600160a01b031633146105d35760405162461bcd60e51b81526004016105ca90611f3e565b60405180910390fd5b6000600783815481106105e8576105e8611f73565b60009182526020909120600560089092020101919091555050565b6000546001600160a01b0316331461062d5760405162461bcd60e51b81526004016105ca90611f3e565b60006007838154811061064257610642611f73565b60009182526020909120600660089092020101805461ffff191660ff909316929092179091555050565b60075460005b8181101561070557826001600160a01b03166007828154811061069757610697611f73565b60009182526020909120600890910201546001600160a01b031614156106f55760405162461bcd60e51b81526020600482015260136024820152726164643a206578697374696e6720706f6f6c3f60681b60448201526064016105ca565b6106fe81611f9f565b9050610672565b505050565b6002600154141561072d5760405162461bcd60e51b81526004016105ca90611fba565b600260018190555060006007828154811061074a5761074a611f73565b6000918252602080832085845260088083526040808620338752909352919093209102909101915061077b83610d5d565b60006107b582600101546107af64e8d4a510006107a98760030154876000015461193290919063ffffffff16565b9061193e565b9061194a565b905060008111806107ca575060008260020154115b156108405760028201546107de9082611956565b600283018190556107f0903390611962565b83336001600160a01b03167f34fcbac0073d7c3d388e51312faf357774904998eeb8fca628b9e6f65ee1cbf7846002015460405161083091815260200190565b60405180910390a3600060028301555b6003830154825461085b9164e8d4a51000916107a991611932565b6001928301555080555050565b6000546001600160a01b031633146108925760405162461bcd60e51b81526004016105ca90611f3e565b61089a61107f565b80600783815481106108ae576108ae611f73565b906000526020600020906008020160060160006101000a81548161ffff021916908361ffff1602179055505050565b600260015414156109005760405162461bcd60e51b81526004016105ca90611fba565b600260018190555060006007838154811061091d5761091d611f73565b60009182526020808320868452600880835260408086203387529093529190932091029091016005810154600383015491935061095991611ff1565b42116109a25760405162461bcd60e51b8152602060048201526018602482015277596f752063616e6e6f74207769746864726177207965742160401b60448201526064016105ca565b80548311156109e85760405162461bcd60e51b81526020600482015260126024820152711dda5d1a191c985dce881b9bdd0819dbdbd960721b60448201526064016105ca565b6109f184610d5d565b6000610a1f82600101546107af64e8d4a510006107a98760030154876000015461193290919063ffffffff16565b90508015610a98576002820154610a369082611956565b60028301819055610a48903390611962565b84336001600160a01b03167f34fcbac0073d7c3d388e51312faf357774904998eeb8fca628b9e6f65ee1cbf78460020154604051610a8891815260200190565b60405180910390a3600060028301555b8315610ade578154610aaa908561194a565b82558254610ac2906001600160a01b03163386611ac6565b4260038301556007830154610ad8908590612009565b60078401555b60038301548254610af99164e8d4a51000916107a991611932565b6001830155604051848152859033907ff279e6a1f5e320cca91135676d9cb6e44ca8a08c0b88342bcdb1144f6511b568906020015b60405180910390a3505060018055505050565b60008060078481548110610b5757610b57611f73565b906000526020600020906008020160020154118015610b9a575060078381548110610b8457610b84611f73565b9060005260206000209060080201600201544310155b610be05760405162461bcd60e51b815260206004820152601760248201527614dd185ada5b99c81b9bdd081e595d081cdd185c9d1959604a1b60448201526064016105ca565b600060078481548110610bf557610bf5611f73565b60009182526020808320878452600880835260408086206001600160a01b038a811688529452808620949091029091016003810154815492516370a0823160e01b815230600482015291965093949291909116906370a082319060240160206040518083038186803b158015610c6a57600080fd5b505afa158015610c7e573d6000803e3d6000fd5b505050506040513d601f19601f82011682018060405250810190610ca29190612020565b9050836002015443118015610cb657508015155b15610d1c576000610ccb8560020154436111a7565b90506000610cf8600a546107a98860010154610cf26006548761193290919063ffffffff16565b90611932565b9050610d17610d10846107a98464e8d4a51000611932565b8590611956565b935050505b610d528360020154610d4c85600101546107af64e8d4a510006107a9888a6000015461193290919063ffffffff16565b90611956565b979650505050505050565b600060078281548110610d7257610d72611f73565b906000526020600020906008020160020154118015610db5575060078181548110610d9f57610d9f611f73565b9060005260206000209060080201600201544310155b610dfb5760405162461bcd60e51b815260206004820152601760248201527614dd185ada5b99c81b9bdd081e595d081cdd185c9d1959604a1b60448201526064016105ca565b600060078281548110610e1057610e10611f73565b9060005260206000209060080201905080600201544311610e2f575050565b80546040516370a0823160e01b81523060048201526000916001600160a01b0316906370a082319060240160206040518083038186803b158015610e7257600080fd5b505afa158015610e86573d6000803e3d6000fd5b505050506040513d601f19601f82011682018060405250810190610eaa9190612020565b905080610ebc57504360029091015550565b6000610ecc8360020154436111a7565b90506000610ef3600a546107a98660010154610cf26006548761193290919063ffffffff16565b9050610f16610f0b846107a98464e8d4a51000611932565b600386015490611956565b60038501555050436002909201919091555050565b60026001541415610f4e5760405162461bcd60e51b81526004016105ca90611fba565b6002600181905550600060078281548110610f6b57610f6b611f73565b600091825260208083208584526008808352604080862033875290935291909320910290910160058101546003830154919350610fa791611ff1565b4211610ff05760405162461bcd60e51b8152602060048201526018602482015277596f752063616e6e6f74207769746864726177207965742160401b60448201526064016105ca565b8054825461100b916001600160a01b03909116903390611ac6565b8054600783015461101c9190612009565b60078301558054604051908152839033907fbb757047c2b5f3974fe26b7c10f732e7bce710b0952a71082702781e62ae05959060200160405180910390a36000808255600180830182905560028301919091554260039092019190915580555050565b60075460005b818110156110a65761109681610d5d565b61109f81611f9f565b9050611085565b5050565b6000546001600160a01b031633146110d45760405162461bcd60e51b81526004016105ca90611f3e565b6110de6000611b29565b565b6000546001600160a01b0316331461110a5760405162461bcd60e51b81526004016105ca90611f3e565b600d55565b6000546001600160a01b031633146111395760405162461bcd60e51b81526004016105ca90611f3e565b6001600160a01b0381166111855760405162461bcd60e51b8152602060048201526013602482015272736574466565416464726573733a205a45524f60681b60448201526064016105ca565b600580546001600160a01b0319166001600160a01b0392909216919091179055565b60006111b3828461194a565b9392505050565b6000546001600160a01b031633146111e45760405162461bcd60e51b81526004016105ca90611f3e565b6111ec61107f565b806007838154811061120057611200611f73565b9060005260206000209060080201600501819055505050565b6000546001600160a01b031633146112435760405162461bcd60e51b81526004016105ca90611f3e565b600081116112a65760405162461bcd60e51b815260206004820152602a60248201527f546f6b656e2070657220626c6f636b206d757374206265206772656174686572604482015269207468616e207a65726f60b01b60648201526084016105ca565b6112ae61107f565b600655565b600260015414156112d65760405162461bcd60e51b81526004016105ca90611fba565b600260015560048054600d5460405163674adb7d60e01b8152928301526000916001600160a01b039091169063674adb7d9060240160206040518083038186803b15801561132357600080fd5b505afa158015611337573d6000803e3d6000fd5b505050506040513d601f19601f8201168201806040525081019061135b9190612020565b9050808211156113a45760405162461bcd60e51b8152602060048201526014602482015273105b5bdd5b9d08195e18d959591cc81b1a5b5a5d60621b60448201526064016105ca565b6000600784815481106113b9576113b9611f73565b600091825260208083208784526008808352604080862033875290935291909320910290910191506113ea85610d5d565b60038101546113fa574260038201555b8054156114aa57600061142f82600101546107af64e8d4a510006107a98760030154876000015461193290919063ffffffff16565b905080156114a85760028201546114469082611956565b60028301819055611458903390611962565b85336001600160a01b03167f34fcbac0073d7c3d388e51312faf357774904998eeb8fca628b9e6f65ee1cbf7846002015460405161149891815260200190565b60405180910390a3600060028301555b505b83156115455781546114c7906001600160a01b0316333087611b79565b600682015461ffff16156115215760068201546000906114f490612710906107a990889061ffff16611932565b6005548454919250611513916001600160a01b03908116911683611ac6565b61151d858261194a565b9450505b8382600701546115319190611ff1565b600783015580546115429085611956565b81555b600382015481546115609164e8d4a51000916107a991611932565b6001820155604051848152859033907f90890809c654f11d6e72a28fa60149770a0d11ec6c92319d6ceb2bb0a4ea1a1590602001610b2e565b6000546001600160a01b031633146115c35760405162461bcd60e51b81526004016105ca90611f3e565b6115cb61107f565b61160881610d4c600785815481106115e5576115e5611f73565b906000526020600020906008020160010154600a5461194a90919063ffffffff16565b600a81905550806007838154811061162257611622611f73565b9060005260206000209060080201600101819055505050565b6000546001600160a01b031633146116655760405162461bcd60e51b81526004016105ca90611f3e565b6001600160a01b0381166116ca5760405162461bcd60e51b815260206004820152602660248201527f4f776e61626c653a206e6577206f776e657220697320746865207a65726f206160448201526564647265737360d01b60648201526084016105ca565b6116d381611b29565b50565b6000546001600160a01b031633146117005760405162461bcd60e51b81526004016105ca90611f3e565b600480546001600160a01b0319166001600160a01b0392909216919091179055565b6000546001600160a01b0316331461174c5760405162461bcd60e51b81526004016105ca90611f3e565b61175461107f565b6000600b54431161176757600b54611769565b435b600a549091506117799086611956565b600a5560408051610100810182526001600160a01b039586168152602081019687529081019182526000606082018181526080830182815260a0840196875261ffff95861660c0850190815260e0850184815260078054600181018255955294517fa66cc928b5edb82af9bd49922954155ab7b0942694bea4ce44661d9a8736c688600890950294850180546001600160a01b03191691909a161790985597517fa66cc928b5edb82af9bd49922954155ab7b0942694bea4ce44661d9a8736c68983015592517fa66cc928b5edb82af9bd49922954155ab7b0942694bea4ce44661d9a8736c68a82015591517fa66cc928b5edb82af9bd49922954155ab7b0942694bea4ce44661d9a8736c68b83015594517fa66cc928b5edb82af9bd49922954155ab7b0942694bea4ce44661d9a8736c68c82015591517fa66cc928b5edb82af9bd49922954155ab7b0942694bea4ce44661d9a8736c68d83015591517fa66cc928b5edb82af9bd49922954155ab7b0942694bea4ce44661d9a8736c68e8201805461ffff1916919093161790915590517fa66cc928b5edb82af9bd49922954155ab7b0942694bea4ce44661d9a8736c68f90910155565b60006111b38284612039565b60006111b38284612058565b60006111b38284612009565b60006111b38284611ff1565b6002546003546040516370a0823160e01b81526001600160a01b03918216600482015260009291909116906370a082319060240160206040518083038186803b1580156119ae57600080fd5b505afa1580156119c2573d6000803e3d6000fd5b505050506040513d601f19601f820116820180604052508101906119e69190612020565b905080821115611a85576002546003546040516323b872dd60e01b81526001600160a01b039182166004820152336024820152604481018490529116906323b872dd906064015b602060405180830381600087803b158015611a4757600080fd5b505af1158015611a5b573d6000803e3d6000fd5b505050506040513d601f19601f82011682018060405250810190611a7f919061207a565b50505050565b6002546003546040516323b872dd60e01b81526001600160a01b039182166004820152336024820152604481018590529116906323b872dd90606401611a2d565b6040516001600160a01b03831660248201526044810182905261070590849063a9059cbb60e01b906064015b60408051601f198184030181529190526020810180516001600160e01b03166001600160e01b031990931692909217909152611bb1565b600080546001600160a01b038381166001600160a01b0319831681178455604051919092169283917f8be0079c531659141344cd1fd0a4f28419497f9722a3daafe3b4186f6b6457e09190a35050565b6040516001600160a01b0380851660248301528316604482015260648101829052611a7f9085906323b872dd60e01b90608401611af2565b6000611c06826040518060400160405280602081526020017f5361666545524332303a206c6f772d6c6576656c2063616c6c206661696c6564815250856001600160a01b0316611c839092919063ffffffff16565b8051909150156107055780806020019051810190611c24919061207a565b6107055760405162461bcd60e51b815260206004820152602a60248201527f5361666545524332303a204552433230206f7065726174696f6e20646964206e6044820152691bdd081cdd58d8d9595960b21b60648201526084016105ca565b6060611c928484600085611c9a565b949350505050565b606082471015611cfb5760405162461bcd60e51b815260206004820152602660248201527f416464726573733a20696e73756666696369656e742062616c616e636520666f6044820152651c8818d85b1b60d21b60648201526084016105ca565b843b611d495760405162461bcd60e51b815260206004820152601d60248201527f416464726573733a2063616c6c20746f206e6f6e2d636f6e747261637400000060448201526064016105ca565b600080866001600160a01b03168587604051611d6591906120c8565b60006040518083038185875af1925050503d8060008114611da2576040519150601f19603f3d011682016040523d82523d6000602084013e611da7565b606091505b5091509150610d5282828660608315611dc15750816111b3565b825115611dd15782518084602001fd5b8160405162461bcd60e51b81526004016105ca91906120e4565b600060208284031215611dfd57600080fd5b5035919050565b60008060408385031215611e1757600080fd5b50508035926020909101359150565b60008060408385031215611e3957600080fd5b82359150602083013560ff81168114611e5157600080fd5b809150509250929050565b6001600160a01b03811681146116d357600080fd5b600060208284031215611e8357600080fd5b81356111b381611e5c565b803561ffff81168114611ea057600080fd5b919050565b60008060408385031215611eb857600080fd5b82359150611ec860208401611e8e565b90509250929050565b60008060408385031215611ee457600080fd5b823591506020830135611e5181611e5c565b60008060008060808587031215611f0c57600080fd5b843593506020850135611f1e81611e5c565b925060408501359150611f3360608601611e8e565b905092959194509250565b6020808252818101527f4f776e61626c653a2063616c6c6572206973206e6f7420746865206f776e6572604082015260600190565b634e487b7160e01b600052603260045260246000fd5b634e487b7160e01b600052601160045260246000fd5b6000600019821415611fb357611fb3611f89565b5060010190565b6020808252601f908201527f5265656e7472616e637947756172643a207265656e7472616e742063616c6c00604082015260600190565b6000821982111561200457612004611f89565b500190565b60008282101561201b5761201b611f89565b500390565b60006020828403121561203257600080fd5b5051919050565b600081600019048311821515161561205357612053611f89565b500290565b60008261207557634e487b7160e01b600052601260045260246000fd5b500490565b60006020828403121561208c57600080fd5b815180151581146111b357600080fd5b60005b838110156120b757818101518382015260200161209f565b83811115611a7f5750506000910152565b600082516120da81846020870161209c565b9190910192915050565b602081526000825180602084015261210381604085016020870161209c565b601f01601f1916919091016040019291505056fea2646970667358221220fbae147fc6a3df39bb20c7d083df58f53428499519dc4ba46f206b5db030237c64736f6c63430008090033",
  "linkReferences": {},
  "deployedLinkReferences": {}
}